{
  "_format": "hh-sol-artifact-1",
  "contractName": "TargetContract",
  "sourceName": "contracts/Lock.sol",
  "abi": [
    {
      "inputs": [],
      "name": "getReceivedValue",
      "outputs": [
        {
          "internalType": "uint256",
          "name": "",
          "type": "uint256"
        }
      ],
      "stateMutability": "view",
      "type": "function"
    },
    {
      "inputs": [],
      "name": "receivedValue",
      "outputs": [
        {
          "internalType": "uint256",
          "name": "",
          "type": "uint256"
        }
      ],
      "stateMutability": "view",
      "type": "function"
    },
    {
      "stateMutability": "payable",
      "type": "receive"
    }
  ],
  "bytecode": "0x608060405234801561001057600080fd5b506101a5806100206000396000f3fe60806040526004361061002d5760003560e01c80633ed8412b1461005157806390648d721461007c5761004c565b3661004c573460008082825461004391906100e0565b92505081905550005b600080fd5b34801561005d57600080fd5b506100666100a7565b60405161007391906100c5565b60405180910390f35b34801561008857600080fd5b506100916100b0565b60405161009e91906100c5565b60405180910390f35b60008054905090565b60005481565b6100bf81610136565b82525050565b60006020820190506100da60008301846100b6565b92915050565b60006100eb82610136565b91506100f683610136565b9250827fffffffffffffffffffffffffffffffffffffffffffffffffffffffffffffffff0382111561012b5761012a610140565b5b828201905092915050565b6000819050919050565b7f4e487b7100000000000000000000000000000000000000000000000000000000600052601160045260246000fdfea26469706673582212207ed111fc3f7d81fc98fa33e6b30ce83c1da7e20baa9d68b59eaefaa3e358117264736f6c63430008000033",
  "linkReferences": {},
  "deployedLinkReferences": {}
}